{
  "abi": [
    {
      "inputs": [
        {
          "internalType": "contract Verifier",
          "name": "fulfillVerifier_",
          "type": "address"
        },
        {
          "internalType": "contract Verifier",
          "name": "redeemVerifier_",
          "type": "address"
        }
      ],
      "stateMutability": "nonpayable",
      "type": "constructor"
    },
    {
      "anonymous": false,
      "inputs": [
        {
          "indexed": false,
          "internalType": "address",
          "name": "prover",
          "type": "address"
        },
        {
          "indexed": false,
          "internalType": "address",
          "name": "sender",
          "type": "address"
        },
        {
          "indexed": false,
          "internalType": "uint256",
          "name": "preimage",
          "type": "uint256"
        },
        {
          "indexed": false,
          "internalType": "uint256[2]",
          "name": "proverKey",
          "type": "uint256[2]"
        },
        {
          "indexed": false,
          "internalType": "uint256[2]",
          "name": "response",
          "type": "uint256[2]"
        }
      ],
      "name": "FulfillOrder",
      "type": "event"
    },
    {
      "anonymous": false,
      "inputs": [
        {
          "indexed": false,
          "internalType": "address",
          "name": "sender",
          "type": "address"
        },
        {
          "indexed": false,
          "internalType": "uint256",
          "name": "preimage",
          "type": "uint256"
        }
      ],
      "name": "RedeemOrder",
      "type": "event"
    },
    {
      "anonymous": false,
      "inputs": [
        {
          "indexed": false,
          "internalType": "address",
          "name": "sender",
          "type": "address"
        },
        {
          "indexed": false,
          "internalType": "uint256",
          "name": "preimage",
          "type": "uint256"
        },
        {
          "indexed": false,
          "internalType": "uint256",
          "name": "price",
          "type": "uint256"
        },
        {
          "indexed": false,
          "internalType": "uint256[2]",
          "name": "senderKey",
          "type": "uint256[2]"
        }
      ],
      "name": "RequestOrder",
      "type": "event"
    },
    {
      "inputs": [
        {
          "components": [
            {
              "components": [
                {
                  "internalType": "uint256",
                  "name": "X",
                  "type": "uint256"
                },
                {
                  "internalType": "uint256",
                  "name": "Y",
                  "type": "uint256"
                }
              ],
              "internalType": "struct Pairing.G1Point[]",
              "name": "comms_1",
              "type": "tuple[]"
            },
            {
              "components": [
                {
                  "internalType": "uint256",
                  "name": "X",
                  "type": "uint256"
                },
                {
                  "internalType": "uint256",
                  "name": "Y",
                  "type": "uint256"
                }
              ],
              "internalType": "struct Pairing.G1Point[]",
              "name": "comms_2",
              "type": "tuple[]"
            },
            {
              "components": [
                {
                  "internalType": "uint256",
                  "name": "X",
                  "type": "uint256"
                },
                {
                  "internalType": "uint256",
                  "name": "Y",
                  "type": "uint256"
                }
              ],
              "internalType": "struct Pairing.G1Point",
              "name": "degree_bound_comms_2_g1",
              "type": "tuple"
            },
            {
              "components": [
                {
                  "internalType": "uint256",
                  "name": "X",
                  "type": "uint256"
                },
                {
                  "internalType": "uint256",
                  "name": "Y",
                  "type": "uint256"
                }
              ],
              "internalType": "struct Pairing.G1Point[]",
              "name": "comms_3",
              "type": "tuple[]"
            },
            {
              "components": [
                {
                  "internalType": "uint256",
                  "name": "X",
                  "type": "uint256"
                },
                {
                  "internalType": "uint256",
                  "name": "Y",
                  "type": "uint256"
                }
              ],
              "internalType": "struct Pairing.G1Point",
              "name": "degree_bound_comms_3_g2",
              "type": "tuple"
            },
            {
              "internalType": "uint256[]",
              "name": "evals",
              "type": "uint256[]"
            },
            {
              "components": [
                {
                  "internalType": "uint256",
                  "name": "X",
                  "type": "uint256"
                },
                {
                  "internalType": "uint256",
                  "name": "Y",
                  "type": "uint256"
                }
              ],
              "internalType": "struct Pairing.G1Point",
              "name": "batch_lc_proof_1",
              "type": "tuple"
            },
            {
              "internalType": "uint256",
              "name": "batch_lc_proof_1_r",
              "type": "uint256"
            },
            {
              "components": [
                {
                  "internalType": "uint256",
                  "name": "X",
                  "type": "uint256"
                },
                {
                  "internalType": "uint256",
                  "name": "Y",
                  "type": "uint256"
                }
              ],
              "internalType": "struct Pairing.G1Point",
              "name": "batch_lc_proof_2",
              "type": "tuple"
            }
          ],
          "internalType": "struct Verifier.Proof",
          "name": "proof",
          "type": "tuple"
        },
        {
          "internalType": "uint256",
          "name": "preimage",
          "type": "uint256"
        },
        {
          "internalType": "address",
          "name": "sender",
          "type": "address"
        },
        {
          "internalType": "uint256[2]",
          "name": "proverKey",
          "type": "uint256[2]"
        },
        {
          "internalType": "uint256[2]",
          "name": "output",
          "type": "uint256[2]"
        }
      ],
      "name": "fulfillOrder",
      "outputs": [],
      "stateMutability": "nonpayable",
      "type": "function"
    },
    {
      "inputs": [],
      "name": "fulfillVerifier",
      "outputs": [
        {
          "internalType": "contract Verifier",
          "name": "",
          "type": "address"
        }
      ],
      "stateMutability": "view",
      "type": "function"
    },
    {
      "inputs": [
        {
          "internalType": "uint256",
          "name": "preimage",
          "type": "uint256"
        }
      ],
      "name": "getResult",
      "outputs": [
        {
          "internalType": "uint256[2][2]",
          "name": "response",
          "type": "uint256[2][2]"
        }
      ],
      "stateMutability": "view",
      "type": "function"
    },
    {
      "inputs": [
        {
          "internalType": "uint256",
          "name": "preimage",
          "type": "uint256"
        }
      ],
      "name": "getStatus",
      "outputs": [
        {
          "internalType": "uint8",
          "name": "status",
          "type": "uint8"
        }
      ],
      "stateMutability": "view",
      "type": "function"
    },
    {
      "inputs": [
        {
          "internalType": "uint256",
          "name": "",
          "type": "uint256"
        }
      ],
      "name": "orders",
      "outputs": [
        {
          "internalType": "uint8",
          "name": "status",
          "type": "uint8"
        },
        {
          "internalType": "uint256",
          "name": "price",
          "type": "uint256"
        }
      ],
      "stateMutability": "view",
      "type": "function"
    },
    {
      "inputs": [
        {
          "components": [
            {
              "components": [
                {
                  "internalType": "uint256",
                  "name": "X",
                  "type": "uint256"
                },
                {
                  "internalType": "uint256",
                  "name": "Y",
                  "type": "uint256"
                }
              ],
              "internalType": "struct Pairing.G1Point[]",
              "name": "comms_1",
              "type": "tuple[]"
            },
            {
              "components": [
                {
                  "internalType": "uint256",
                  "name": "X",
                  "type": "uint256"
                },
                {
                  "internalType": "uint256",
                  "name": "Y",
                  "type": "uint256"
                }
              ],
              "internalType": "struct Pairing.G1Point[]",
              "name": "comms_2",
              "type": "tuple[]"
            },
            {
              "components": [
                {
                  "internalType": "uint256",
                  "name": "X",
                  "type": "uint256"
                },
                {
                  "internalType": "uint256",
                  "name": "Y",
                  "type": "uint256"
                }
              ],
              "internalType": "struct Pairing.G1Point",
              "name": "degree_bound_comms_2_g1",
              "type": "tuple"
            },
            {
              "components": [
                {
                  "internalType": "uint256",
                  "name": "X",
                  "type": "uint256"
                },
                {
                  "internalType": "uint256",
                  "name": "Y",
                  "type": "uint256"
                }
              ],
              "internalType": "struct Pairing.G1Point[]",
              "name": "comms_3",
              "type": "tuple[]"
            },
            {
              "components": [
                {
                  "internalType": "uint256",
                  "name": "X",
                  "type": "uint256"
                },
                {
                  "internalType": "uint256",
                  "name": "Y",
                  "type": "uint256"
                }
              ],
              "internalType": "struct Pairing.G1Point",
              "name": "degree_bound_comms_3_g2",
              "type": "tuple"
            },
            {
              "internalType": "uint256[]",
              "name": "evals",
              "type": "uint256[]"
            },
            {
              "components": [
                {
                  "internalType": "uint256",
                  "name": "X",
                  "type": "uint256"
                },
                {
                  "internalType": "uint256",
                  "name": "Y",
                  "type": "uint256"
                }
              ],
              "internalType": "struct Pairing.G1Point",
              "name": "batch_lc_proof_1",
              "type": "tuple"
            },
            {
              "internalType": "uint256",
              "name": "batch_lc_proof_1_r",
              "type": "uint256"
            },
            {
              "components": [
                {
                  "internalType": "uint256",
                  "name": "X",
                  "type": "uint256"
                },
                {
                  "internalType": "uint256",
                  "name": "Y",
                  "type": "uint256"
                }
              ],
              "internalType": "struct Pairing.G1Point",
              "name": "batch_lc_proof_2",
              "type": "tuple"
            }
          ],
          "internalType": "struct Verifier.Proof",
          "name": "proof",
          "type": "tuple"
        },
        {
          "internalType": "uint256",
          "name": "preimage",
          "type": "uint256"
        }
      ],
      "name": "redeemOrder",
      "outputs": [],
      "stateMutability": "nonpayable",
      "type": "function"
    },
    {
      "inputs": [],
      "name": "redeemVerifier",
      "outputs": [
        {
          "internalType": "contract Verifier",
          "name": "",
          "type": "address"
        }
      ],
      "stateMutability": "view",
      "type": "function"
    },
    {
      "inputs": [
        {
          "internalType": "uint256",
          "name": "preimage",
          "type": "uint256"
        },
        {
          "internalType": "uint256[2]",
          "name": "senderKey",
          "type": "uint256[2]"
        }
      ],
      "name": "requestOrder",
      "outputs": [],
      "stateMutability": "payable",
      "type": "function"
    },
    {
      "inputs": [
        {
          "internalType": "uint256",
          "name": "newNumber",
          "type": "uint256"
        }
      ],
      "name": "setFee",
      "outputs": [],
      "stateMutability": "nonpayable",
      "type": "function"
    }
  ],
  "bytecode": {
    "object": "0x608060405234801561001057600080fd5b5060405161109438038061109483398101604081905261002f91610078565b600080546001600160a01b039384166001600160a01b031991821617909155600180549290931691161790556100b2565b6001600160a01b038116811461007557600080fd5b50565b6000806040838503121561008b57600080fd5b825161009681610060565b60208401519092506100a781610060565b809150509250929050565b610fd3806100c16000396000f3fe6080604052600436106100865760003560e01c8063a85c38ef11610059578063a85c38ef1461013f578063b580c10714610192578063c2cf6778146101a5578063f083547b146101c5578063f1b9f186146101fd57600080fd5b80631d1c19df1461008b5780635c622a0e146100ad57806369fe0e2d146100f4578063995e433914610112575b600080fd5b34801561009757600080fd5b506100ab6100a63660046109c8565b61021d565b005b3480156100b957600080fd5b506100dd6100c8366004610a0d565b60009081526002602052604090205460ff1690565b60405160ff90911681526020015b60405180910390f35b34801561010057600080fd5b506100ab61010f366004610a0d565b50565b34801561011e57600080fd5b5061013261012d366004610a0d565b610412565b6040516100eb9190610a26565b34801561014b57600080fd5b5061017961015a366004610a0d565b6002602052600090815260409020805460019091015460ff9091169082565b6040805160ff90931683526020830191909152016100eb565b6100ab6101a0366004610a9d565b6104e2565b3480156101b157600080fd5b506100ab6101c0366004610aca565b6105cd565b3480156101d157600080fd5b506000546101e5906001600160a01b031681565b6040516001600160a01b0390911681526020016100eb565b34801561020957600080fd5b506001546101e5906001600160a01b031681565b6000818152600260205260409020805460ff166001146102bf5760405162461bcd60e51b815260206004820152604c60248201527f7265717565737420697320616c72656164792070726f636573736564206f722060448201527f6e6f74206578697374732c20636865636b20726571756573747328616464726560648201526b73732c2075696e743235362960a01b608482015260a4015b60405180910390fd5b600154600083815260026020819052604091829020915163d705419160e01b81526001600160a01b039093169263d705419192610303928892910190600401610c82565b602060405180830381865afa158015610320573d6000803e3d6000fd5b505050506040513d601f19601f820116820180604052508101906103449190610dad565b6103905760405162461bcd60e51b815260206004820152601960248201527f52656465656d2070726f6f66206973206e6f742076616c69640000000000000060448201526064016102b6565b6001810154815460ff1916825560408051808201909152600080825260208201526103c190600280850191906108de565b50600060018301556103d33382610886565b60408051338152602081018590527f575823686b1d286aae1ef10d0458db72c5ff5c0e29bfbe78e2a311f819dd5e44910160405180910390a150505050565b61041a610921565b600082815260026020819052604091829020825180840193849052926004909101919082845b8154815260200190600101908083116104405750505050508160006002811061046b5761046b610dcf565b6020020181905250600260008381526020019081526020016000206006016002806020026040519081016040528092919082600280156104c0576020028201915b8154815260200190600101908083116104ac575b5050505050816001600281106104d8576104d8610dcf565b6020020152919050565b6000828152600260205260409020805460ff16156105685760405162461bcd60e51b815260206004820152603b60248201527f7265717565737420697320616c7265616479206578697374732c20636865636b60448201527f20726571756573747328616464726573732c2075696e7432353629000000000060648201526084016102b6565b805460ff19166001178155610583600280830190849061094e565b5034600182018190556040517f8fa0509c2ea236c538ccc1b45deab58241e12c467eafde4febb271ca56fc2ebb916105c091339187918790610de5565b60405180910390a1505050565b6000848152600260205260409020805460ff166001146106555760405162461bcd60e51b815260206004820152603960248201527f72657175657374206e6f7420696e2070726f67726573732c20636865636b207260448201527f6571756573747328616464726573732c2075696e74323536290000000000000060648201526084016102b6565b604080518082019182905260009160028481019182845b81548152602001906001019080831161066c575050505050905060006040518060e00160405280866000600281106106a6576106a6610dcf565b60200201358152602001866001600281106106c3576106c3610dcf565b60200201358152602001836000600281106106e0576106e0610dcf565b60200201518152602001836001600281106106fd576106fd610dcf565b602002015181526020018881526020018560006002811061072057610720610dcf565b602002013581526020018560016002811061073d5761073d610dcf565b60200201359052600054604051632f47b7dd60e11b81529192506001600160a01b031690635e8f6fba90610777908b908590600401610e37565b602060405180830381865afa158015610794573d6000803e3d6000fd5b505050506040513d601f19601f820116820180604052508101906107b89190610dad565b6108045760405162461bcd60e51b815260206004820152601a60248201527f46756c66696c6c2070726f6f66206973206e6f742076616c696400000000000060448201526064016102b6565b825460ff1916600317835561081e6004840186600261094e565b5061082e6006840185600261094e565b5061083d338460010154610886565b7f9bf4f85224fe22e2e5728297e964550d07d96582b18425f20c4a0ade6774d7193387898888604051610874959493929190610f64565b60405180910390a15050505050505050565b4760008282106108965782610898565b815b905080156108d8576040516001600160a01b0385169082156108fc029083906000818181858888f193505050501580156108d6573d6000803e3d6000fd5b505b50505050565b8260028101928215610911579160200282015b82811115610911578251829060ff169055916020019190600101906108f1565b5061091d92915061097c565b5090565b60405180604001604052806002905b610938610991565b8152602001906001900390816109305790505090565b8260028101928215610911579160200282015b82811115610911578235825591602001919060010190610961565b5b8082111561091d576000815560010161097d565b60405180604001604052806002906020820280368337509192915050565b60006101a082840312156109c257600080fd5b50919050565b600080604083850312156109db57600080fd5b823567ffffffffffffffff8111156109f257600080fd5b6109fe858286016109af565b95602094909401359450505050565b600060208284031215610a1f57600080fd5b5035919050565b6080810181836000805b6002808210610a3f5750610a7c565b835185845b83811015610a62578251825260209283019290910190600101610a44565b505050604094909401935060209290920191600101610a30565b5050505092915050565b8060408101831015610a9757600080fd5b92915050565b60008060608385031215610ab057600080fd5b82359150610ac18460208501610a86565b90509250929050565b600080600080600060e08688031215610ae257600080fd5b853567ffffffffffffffff811115610af957600080fd5b610b05888289016109af565b9550506020860135935060408601356001600160a01b0381168114610b2957600080fd5b9250610b388760608801610a86565b9150610b478760a08801610a86565b90509295509295909350565b6000808335601e19843603018112610b6a57600080fd5b830160208101925035905067ffffffffffffffff811115610b8a57600080fd5b8060061b3603821315610b9c57600080fd5b9250929050565b81835260208301925060008160005b84811015610bda57813586526020808301359087015260409586019590910190600101610bb2565b5093949350505050565b6000808335601e19843603018112610bfb57600080fd5b830160208101925035905067ffffffffffffffff811115610c1b57600080fd5b8060051b3603821315610b9c57600080fd5b81835260006001600160fb1b03831115610c4657600080fd5b8260051b80836020870137939093016020019392505050565b8060005b60028110156108d8578154845260209093019260019182019101610c63565b606081526000610c928485610b53565b6101a0806060860152610caa61020086018385610ba3565b9250610cb96020880188610b53565b9250605f1980878603016080880152610cd3858584610ba3565b60408a013560a089015260608a013560c08901529450610cf660808a018a610b53565b94509150808786030160e0880152610d0f858584610ba3565b94506101009350610d2f84880160a08b0180358252602090810135910152565b610d3c60e08a018a610be4565b92506101408289880301818a0152610d55878584610c2d565b96506101609350610d74848a01878d0180358252602090810135910152565b8a013584890152505080880180356101c0880152602001356101e087015250505080915050610da66020830184610c5f565b9392505050565b600060208284031215610dbf57600080fd5b81518015158114610da657600080fd5b634e487b7160e01b600052603260045260246000fd5b6001600160a01b038516815260208101849052604080820184905260a082019083606084013795945050505050565b8060005b60078110156108d8578151845260209384019390910190600101610e18565b6000610100808352610e498586610b53565b6101a08084870152610e606102a087018385610ba3565b9250610e6f6020890189610b53565b925060ff198088860301610120890152610e8a858584610ba3565b94506101409350610eaa84890160408c0180358252602090810135910152565b610eb760808b018b610b53565b925081898703016101808a0152610ecf868483610ba3565b955050610eeb83890160a08c0180358252602090810135910152565b610ef860e08b018b610be4565b9350915080888603016101e089015250610f13848383610c2d565b89860180356102008a0152602001356102208901529350610f32915050565b8601356102408501526101608601356102608501526101808601356102808501529150610da690506020830184610e14565b6001600160a01b03868116825285166020820152604080820185905260e082019084606084013760408360a0840137969550505050505056fea26469706673582212201799534480b90a89950c9b4c8013ed3595b7d4c3b48a786134d75cf8b052df5164736f6c63430008110033",
    "linkReferences": {}
  },
  "methodIdentifiers": {
    "fulfillOrder(((uint256,uint256)[],(uint256,uint256)[],(uint256,uint256),(uint256,uint256)[],(uint256,uint256),uint256[],(uint256,uint256),uint256,(uint256,uint256)),uint256,address,uint256[2],uint256[2])": "c2cf6778",
    "fulfillVerifier()": "f083547b",
    "getResult(uint256)": "995e4339",
    "getStatus(uint256)": "5c622a0e",
    "orders(uint256)": "a85c38ef",
    "redeemOrder(((uint256,uint256)[],(uint256,uint256)[],(uint256,uint256),(uint256,uint256)[],(uint256,uint256),uint256[],(uint256,uint256),uint256,(uint256,uint256)),uint256)": "1d1c19df",
    "redeemVerifier()": "f1b9f186",
    "requestOrder(uint256,uint256[2])": "b580c107",
    "setFee(uint256)": "69fe0e2d"
  },
  "id": 13
}